{
  "_format": "hh-sol-artifact-1",
  "contractName": "SensorContract",
  "sourceName": "contracts/SensorContract.sol",
  "abi": [
    {
      "inputs": [],
      "name": "humidity",
      "outputs": [
        {
          "internalType": "uint256",
          "name": "",
          "type": "uint256"
        }
      ],
      "stateMutability": "view",
      "type": "function"
    },
    {
      "inputs": [],
      "name": "temperature",
      "outputs": [
        {
          "internalType": "uint256",
          "name": "",
          "type": "uint256"
        }
      ],
      "stateMutability": "view",
      "type": "function"
    },
    {
      "inputs": [
        {
          "internalType": "uint256",
          "name": "_temperature",
          "type": "uint256"
        },
        {
          "internalType": "uint256",
          "name": "_humidity",
          "type": "uint256"
        }
      ],
      "name": "updateSensor",
      "outputs": [],
      "stateMutability": "nonpayable",
      "type": "function"
    }
  ],
  "bytecode": "0x608060405234801561001057600080fd5b50610197806100206000396000f3fe608060405234801561001057600080fd5b50600436106100415760003560e01c80633219256614610046578063a113efa314610062578063adccea1214610080575b600080fd5b610060600480360381019061005b91906100f7565b61009e565b005b61006a6100b0565b6040516100779190610146565b60405180910390f35b6100886100b6565b6040516100959190610146565b60405180910390f35b81600081905550806001819055505050565b60015481565b60005481565b600080fd5b6000819050919050565b6100d4816100c1565b81146100df57600080fd5b50565b6000813590506100f1816100cb565b92915050565b6000806040838503121561010e5761010d6100bc565b5b600061011c858286016100e2565b925050602061012d858286016100e2565b9150509250929050565b610140816100c1565b82525050565b600060208201905061015b6000830184610137565b9291505056fea26469706673582212205a9092162255520ade831c5aaedc05ab7ebbfdfdc78919972a1bfeb1acd7770c64736f6c63430008140033",
  "linkReferences": {},
  "deployedLinkReferences": {}
}